:020000040800F2
:1000000000000820353F0008333F0008313F00085A
:10001000313F0008313F0008313F00080000000078
:10002000000000000000000000000000333F000856
:10003000333F000800000000333F0008333F000852
:10004000313F0008313F0008313F0008313F0008D0
:10005000313F0008313F0008313F0008313F0008C0
:10006000313F0008313F0008313F0008313F0008B0
:10007000313F0008313F0008313F0008313F0008A0
:10008000313F0008313F0008313F0008313F000890
:10009000313F0008313F0008313F0008313F000880
:1000A000313F0008313F0008313F0008313F000870
:1000B000313F0008313F0008313F0008313F000860
:1000C000313F0008313F0008313F0008313F000850
:1000D000313F0008313F0008313F0008313F000840
:1000E000313F0008313F0008313F0008313F000830
:1000F000313F0008313F0008313F0008313F000820
:10010000313F0008313F0008313F0008313F00080F
:10011000313F0008313F0008313F0008FD0300086F
:10012000313F0008313F0008313F0008313F0008EF
:10013000313F0008313F0008313F0008313F0008DF
:10014000313F0008313F0008313F0008313F0008CF
:10015000313F0008313F0008313F0008313F0008BF
:10016000313F0008313F0008313F0008313F0008AF
:10017000313F0008313F0008313F0008313F00089F
:10018000313F0008313F0008313F0008313F00088F
:10019000313F0008313F0008313F0008313F00087F
:1001A000313F0008313F0008313F0008313F00086F
:1001B000313F0008313F0008313F0008313F00085F
:1001C000313F0008313F0008313F0008313F00084F
:1001D000313F0008313F0008313F0008313F00083F
:1001E00010B5054C237833B9044B13B10448AFF371
:1001F00000800123237010BDBC0900200000000016
:10020000C046000808B5034B1BB103490348AFF3D0
:10021000008008BD00000000C0090020C0460008A2
:1002200010B5074C012300221946204603F022FC9A
:10023000012300221146204603F03CFC10BD00BF04
:100240000004024008B5064803F08EFD40F201604C
:1002500003F0E4FD40F2036003F0E0FD08BD00BFE1
:100260001046000838B51C4A136843F40033136085
:1002700040F6150003F0D2FD184C204603F060FC58
:10028000174D4FF4407300220221284603F0F2FB81
:100290004FF4407302220121284603F00BFC4FF477
:1002A00040720421284603F020FC204603F06FFC36
:1002B000204603F071FC0021204603F072FC20462A
:1002C00003F09CFD02460121204603F093FC2046EA
:1002D00003F058FC38BD00BF903802400054004085
:1002E000000402400FB400B583B004AA52F8041B06
:1002F0000192044800F0F8F903B05DF804EB04B093
:10030000704700BF0903000808B50146014803F023
:10031000FBFD08BD004800404FF0FF307047000073
:1003200010B51C4C4FF4807300220221204603F0CC
:10033000A1FB4FF4807302220021204603F0BAFB98
:100340004FF480720721204603F0CFFB40F61200E5
:1003500003F064FDA4F5E2344FF41651204603F097
:1003600097FD0821204603F0A9FD0021204603F057
:10037000AEFD0821204603F0B6FD0021204603F023
:10038000ACFD0021204603F0B4FD204603F0B7FD8C
:1003900010BD00BF000C024010B540F6040003F091
:1003A0003DFD154C4DF2F021204603F06DFD4FF65A
:1003B000FF71204603F06AFD204603F056FD40F62B
:1003C000050003F02BFD04F580646C21204603F04A
:1003D0005BFD4FF47A71204603F058FD204603F090
:1003E00049FD372003F0F2FD0121204603F036FDE0
:1003F000204603F044FD10BD0010004008B5044A3B
:100400001368013313600121024803F02BFD08BD7E
:10041000D80900200014004008B54000064B1860C1
:10042000183B01221A60054803F029FD034B1B68A5
:1004300013F0010FFAD108BD2C100040001000404D
:1004400008B5FFF7FFFEFFF7A7FFFFF7E9FEFFF78D
:1004500067FFFFF707FF0B48FFF744FF0A4C0B4B02
:100460001A680B49204600F073F92046FFF73AFF5F
:100470000121084803F0F5FA4FF47A70FFF7CCFF3A
:10048000ECE700BF7C430008100A0020D8090020D8
:100490008C4300080004024038B5044603E023689A
:1004A0006168984729464D1C08780028F7D138BD67
:1004B00038B505460C460B6898476368013363609E
:1004C0000A2D00D038BD237A13F0010FFAD023682B
:1004D0000D209847636801336360F3E770B5141E1D
:1004E0000DDD054618460E4600F052F9241A04E0C8
:1004F0002B68696830469847013C002CF8DC70BDD9
:100500002DE9F0438BB007460C460192651C20781C
:10051000002800F0C580252804D03B6879689847FA
:100520002C46F3E7A31C66782D2E18BF2B2E09D17D
:10053000E31CB146A678302E07D04FF020081C46A9
:1005400000250EE04FF00009F5E7B0461E780133B4
:10055000F5E705EB85056B0006F00F051D442678D1
:100560000134A6F13003DBB2092BF2D9002E00F0E2
:100570009780642E1AD00CD8252E7FD0632E40F0A1
:100580008280019B1A1D01923A6879681878904719
:10059000BCE7732E55D0782E75D1019B1A1D0192A0
:1005A0001B680AAE002206F8012D39E0019B1A1DD6
:1005B00001921E68002E25DA3B6879682D20984745
:1005C00076420DF12809002309F8013D364A82FBE5
:1005D0000632F317C3EBA2031A4603EB8303590059
:1005E000731A303309F8013D1646002AEED14B4606
:1005F0002A4641463846FFF771FF49463846FFF71D
:100600004BFF83E7B9F12B0FDBD13B687968484694
:100610009847D6E737220A4406F8012D1B0905D072
:1006200003F00F010929F5D83022F4E733462A46B2
:1006300041463846FFF752FF31463846FFF72CFF58
:1006400064E7019B1A1D01921E68B9F12D0F0ED1AE
:1006500031463846FFF720FFB9F12D0F7FF456AF32
:1006600033462A4641463846FFF738FF4EE73346C1
:100670002A4641463846FFF731FFE9E73B6879688B
:100680003046984742E73B687968252098473B68A1
:1006900079683F2098473B6879683046984735E746
:1006A0000BB0BDE8F08300BF6766666610B586B024
:1006B0001446019000220292891A18BF01219DF868
:1006C0000C2061F300028DF80C20064A049201AA66
:1006D00005921A46214604A8FFF712FF029806B0B9
:1006E00010BD00BFB104000808B513460A46012139
:1006F000FFF7DCFF08BD10B5431E0A44914200D14C
:1007000010BD11F8014B03F8014FF7E7884210B50F
:1007100001EB020307D8421E99420AD011F8014B9F
:1007200002F8014FF8E78342F5D98118D21AD34273
:1007300000D110BD13F8014D01F8014DF7E7024457
:100740000346934200D1704703F8011BF9E700000C
:100750000EB400B59CB01DAB029006906FF0004146
:10076000094807910491094953F8042B0591006841
:10077000019302A900F014F8029B00221A701CB029
:100780005DF804EB03B07047000000200802FFFF93
:10079000034613F8012B002AFBD1181A01387047C1
:1007A0002DE9F04F2DED048BCBB08B4691461E46C4
:1007B000029002F0CDF803680F931846FFF7E8FFA8
:1007C000BBF80C30099018061AD5DBF81030BBB90D
:1007D0004021029802F0CCF8CBF80000CBF81000D2
:1007E00058B9029A0C2313604FF0FF330A930A980A
:1007F0004BB0BDEC048BBDE8F08F4023CBF8143038
:100800000023CDE91F339FEDC68BCDE9103321AC1A
:100810001E94039307930E9312930A934D462B460F
:1008200013F8012B12B1252A40F0E480B5EB09073B
:100830000ED0209B3B4420931F9B0133072BC4E920
:1008400000971F9300F3D88008340A9B3B440A9317
:100850002B78002B01F074816B1C089300238DF81A
:100860005B304FF0FF380B931D46089B1B780493B9
:10087000089B01330893049B203B5A2B00F2E5852B
:1008800001A252F823F000BF870A00084B140008A9
:100890004B140008990A00084B1400084B14000878
:1008A0004B1400084D0A00084B1400084B140008B4
:1008B0009F0A0008B70A00084B140008B10A000894
:1008C000BB0A00084B140008F30A0008F90A0008E4
:1008D000F90A0008F90A0008F90A0008F90A0008EC
:1008E000F90A0008F90A0008F90A0008F90A0008DC
:1008F0004B1400084B1400084B1400084B1400085C
:100900004B1400084B1400084B140008F30B0008AC
:100910004B140008610B0008850B0008F30B00085E
:10092000F30B0008F30B00084B1400084B140008ED
:100930004B1400084B1400081B0B00084B14000854
:100940004B140008671000084B1400084B140008F3
:100950004B140008EF1000084B140008C7120008E1
:100960004B1400084B140008110A00084B1400082F
:100970004B1400084B1400084B1400084B140008DB
:100980004B1400084B1400084B140008F30B00082C
:100990004B140008610B0008890B0008F30B0008DA
:1009A000F30B0008F30B00082D0B0008890B00085F
:1009B000550B00084B140008470B00084B140008A7
:1009C000291000086B100008CF100008550B000814
:1009D0004B140008EF1000086B080008CB12000849
:1009E0004B1400084B140008011300084B140008B6
:1009F0006B0800081D4612E71EAA5946029802F02D
:100A00005AFD002840F0508121AC1EE71E462CE71D
:100A1000454B1193AF0640F17684073626F0070662
:100A200006F10803D6E900670693EB070AD556EAF4
:100A3000070307D030238DF85C30049B8DF85D30C0
:100A400045F0020525F4806502231BE3029801F0BE
:100A50007FFF436812931846FFF79AFE0E900298A4
:100A600001F076FF836807930E9B002B3FF4FDAEE9
:100A7000079B002B3FF4F9AE1B78002B3FF4F5AE3B
:100A800045F48065F1E69DF85B30002B7FF4EDAE18
:100A900020238DF85B30E8E645F00105E5E6326895
:100AA0000B92002A06F10403B0DA52420B921E4662
:100AB00045F00405D9E62B23EBE7089A089B12784A
:100AC00004922A2A03F1010310D13268089342EA02
:100AD000E2780436C9E60A2101FB082813F8012B45
:100AE0000492049A303A092AF5D9C3E64FF0000877
:100AF000F7E745F08005B8E60022089B0B92049AC0
:100B00000B99303A0A2000FB01220B9213F8012BBB
:100B10000492303A092AF2D9ACE645F00805A4E679
:100B20000000000000000000C1430008089B1B7883
:100B3000682B01BF089B0133089345F4007518BF6B
:100B400045F0400591E6089B1B786C2B05D1089B6E
:100B50000133089345F0200587E645F0100584E64B
:100B6000331D069333688DF8C43000238DF85B3055
:100B70009A464FF001080C931F4605931E460DF14F
:100B8000C409CEE245F01005A90621D5073626F0A6
:100B9000070606F10803D6E900670693002E77F1F1
:100BA000000306DA76424FF02D0367EB47078DF816
:100BB0005B30B8F1FF3F40F0B683002F08BF0A2E2C
:100BC00080F0E8830DF59479303609F8016DCCE3B7
:100BD000331DEA06069302D53668F717DEE715F0EF
:100BE000400F366801D036B2F7E7AB0548BF76B2A2
:100BF000F3E7073626F0070696ED008B9FEDB07BF6
:100C0000B0EEC86B06F10803B4EE476BF1EE10FAD4
:100C1000069317DDB5EEC08BF1EE10FA02D52D2349
:100C20008DF85B30A84AA94B049925F08005472927
:100C3000CCBF914699464FF0000A4FF00308CDF81B
:100C400030A099E3B4EE488BF1EE10FA09D718EE14
:100C5000903A002BBCBF2D238DF85B309C4A9D4BF6
:100C6000E2E7049B23F02007412F26D130238DF8A3
:100C70005C30049B612B14BF58237823B8F1630FB9
:100C80008DF85D3045F0020524DD08F10101029880
:100C900001F06EFE8146002840F0EC80BBF80C307D
:100CA00043F04003ABF80C30BBF80C3013F0400FAE
:100CB0000A9B18BF4FF0FF3398E5B8F1FF3F00F0F3
:100CC000DB80472F03D1B8F1000F00F0DA804FF03E
:100CD000000A03E04FF0000A0DF1C40945F48073E7
:100CE0000C9318EE903A002B80F2CF80B1EE489B27
:100CF0002D23412F0D9340F0D980B0EE490B18A859
:100D000002F07AFBB4EE007B20EE070BB5EE400B51
:100D1000F1EE10FA04BF01231893049A6E4B6F4949
:100D2000B3EE007B612A08BF194608F1FF324B463B
:100D300020EE070BFDEEC06BB2F1FF3F16EE900AFE
:100D40000E5C03F8016BB8EEE66B164630EE460B10
:100D500006D0B5EE400BF1EE10FA02F1FF32E7D10A
:100D6000B6EE007BB4EEC70BF1EE10FA08DCB4EE81
:100D7000470BF1EE10FA40F09580C00740F19280E9
:100D8000CE7B1C934FF0300C1C98421E1C9210F826
:100D9000012CB2427DD0392A16BF01328A7AD2B2F2
:100DA00000F8012C1A46A2EB0903472F0393189E63
:100DB00040F0CE80F21C02DBB04580F2F580049B4F
:100DC000023B049304999DF8102021F02001412951
:100DD00008BF0F3206F1FF3306BFD2B20121002156
:100DE000002B1893B8BFC6F101038DF86820B4BF7B
:100DF0002D222B22092B8DF8692040F3C0800DF1A4
:100E000077020A2693FBF6F006FB103330330928ED
:100E100002F8013C02F1FF31034600F3A9803033B0
:100E200001F8013C023A0DF16A030DF177008242AC
:100E30001946C0F09F80039A1AABCB1A012A10936F
:100E400003EB020801DCEB0701D5099B984425F46C
:100E50008065002745F480730C9305973E460D9BF3
:100E6000002B00F0FE822D230C9D8DF85B300023BB
:100E70000C9356E1824631E74FF0000A4FF0060826
:100E80002CE7C2464FF0010828E7B0EE489B00234C
:100E90002FE700F801CC77E702F8010B991A002937
:100EA000FADA80E71A4630203344F7E7462F17D0A6
:100EB000452F46D108F10106022113E0AFF300806F
:100EC000FFFFFFFFFFFFEF7FA4430008A0430008E0
:100ED000AC430008A8430008B0430008C143000821
:100EE000464603211CAB019319AB0093324618AB65
:100EF000B0EE490B029800F0CFFE472F814601D19A
:100F0000E90721D5462F09EB06030DD199F80020FA
:100F1000302A07D1B5EE409BF1EE10FA1CBFC6F1A6
:100F200001061896189A1344B5EE409BF1EE10FA9C
:100F300009D030211C9A934206D9501C1C90117084
:100F4000F8E74646B8E71C931C9BA3EB09032CE784
:100F5000462F7FF437AF002E1EDDB8F1000F01D110
:100F6000EF0735D5099BF31898446623049335E0C1
:100F70000A4646E712F8011B03F8011B57E741B97F
:100F800030228DF86A200DF16B023033511C137042
:100F900051E70DF16A02F8E7B8F1000F01D1E80757
:100FA00018D5099B0133DFE7039BB34206DCE90751
:100FB00027D5099B06EB03086723D7E7039B099A0C
:100FC000002E03EB0208F7DCC6F101039844F3E7B7
:100FD000B046CAE7662304934FF0010815F4806316
:100FE00005931FD00027002E05977FF738AF079B8A
:100FF0001B78FF2B07D1059B0E9A3B4402FB03880D
:101000002DE7B046D8E7B342F5DAF61A079B5B78CE
:1010100033B1059B01330593079B01330793E6E743
:101020000137E4E7059F1AE7324652F8043B06927F
:10103000AA0609D50A9A1046D117C3E90001069EEF
:10104000DDF82090FFF7EABBEF0602D50A9A1A6096
:10105000F5E76E0602D50A9A1A80F0E7A805F5D5DD
:101060000A9A1A70EBE745F01005A90620D5073655
:1010700026F0070606F10803D6E90067069325F473
:10108000806500230022B8F1FF3F8DF85B2000F05F
:101090004D812A4656EA070125F0800540F0468139
:1010A000B8F1000F00F0C781012B40F0428189E5C3
:1010B000331DEA06069301D5366802E06B0602D5B9
:1010C00036880027DBE7AF05F6D53678F9E7331D1C
:1010D000069347F63003ADF85C307822AA4B1193A3
:1010E00036680492002745F002050223CAE7331D43
:1010F000D6F8009006930026B8F1FF3F8DF85B60AC
:1011000000F0DB8042463146484601F069FE8246E7
:1011100000283FF494ADA0EB0908B2460C96374680
:1011200005960C9B4345B8BF43460D939DF85B3035
:1011300013B10D9B01330D9315F0020313931EBFE2
:101140000D9B02330D9315F08403149320D10B9B58
:101150000D9A9B1A002B1BDDDDE91F2C8B492160AA
:10116000102B02F1010204F1080000F37D810CEB69
:101170000301072A6360CDE91F2140F38A811EAA7B
:101180005946029802F097F9002840F0B78421AC44
:101190009DF85B3073B10DF15B0323600123636045
:1011A000209B013320931F9B0133072B1F9300F3D8
:1011B00072810834139B6BB117AB23600223636009
:1011C000209B023320931F9B0133072B1F9300F3B7
:1011D0006C810834149B802B20D10B9B0D9A9B1A99
:1011E000002B1BDDDDE91F2C69492160102B02F16A
:1011F000010204F1080000F362810CEB0301072AED
:101200006360CDE91F2140F36F811EAA5946029801
:1012100002F051F9002840F0718421AC0C9BA3EB43
:101220000803002B0C931CDD0C98DDE91F2310280C
:101230005748206002F1010204F1080100F35681D1
:101240000C9860600344072ACDE91F2340F36381B3
:101250001EAA5946029802F02EF9002840F04E844A
:1012600021ACE805209B00F15881434420931F9B4B
:101270000133072BC4E900981F9300F390810834D1
:101280006B0700F11D84DDE90A320D998A42ACBF7B
:101290009B185B180A93209B3BB11EAA59460298E3
:1012A00002F009F9002840F0298400231F93BAF1C5
:1012B000000F40F03F8421ACC1E64846FFF768FAD2
:1012C000B2468046BBE445F01005A80609D50736AE
:1012D00026F0070606F10803D6E900670693012306
:1012E000D0E6331DE906069301D5366802E06A06AA
:1012F00002D536880027F2E7AB05F6D53678F9E750
:10130000214BFFF786BB331DE806069301D53668EF
:1013100002E0690603D536880027FFF786BBAA05D9
:10132000F5D53678F8E72A460123B3E6012B3FF4DA
:1013300044AC022B6DD04AABF10841EA4771F80882
:1013400006F0070207460E46303256EA070103F15F
:10135000FF3903F8012C14D1EF0706D5302A04D049
:10136000302209F8012CA3F102094AABCDF83080F4
:101370004FF0000AA3EB09085746CDF814A05646D3
:10138000CFE64B46D8E700BFB0430008D44300087F
:10139000E44300080023039305F480630DF5947A79
:1013A00005930A2200233046394602F067FE039B6C
:1013B00001330393059B30320AF1FF390AF8012CFF
:1013C000D3B1079B039A1B789A4215D1FF2A13D0F9
:1013D000002F08BF0A2E0FD30E9B1299A9EB030909
:1013E0001A46484602F052F8079B5B781BB1079BF0
:1013F00001330793002303930023304639460A2222
:1014000002F03CFE06460F4656EA0703ADD0CA4638
:10141000C7E70DF5947906F00F03119AD35C09F82C
:10142000013D330943EA07733A091E46174656EA57
:101430000703F0D199E70DF59479002B95D1D607E4
:1014400044BF302309F8013D8FE7049B002B00F0D7
:1014500077838DF8C43000238DF85B300696FFF754
:1014600087BBDDE90C5303E510216160072A614465
:10147000CDE91F210ADD1EAA59460298159302F0F4
:101480001AF8002840F03A83159B21A8103B044627
:1014900062E604467CE61EAA5946029802F00BF862
:1014A000002840F02B8321AC84E61EAA59460298FE
:1014B00002F001F8002840F0218321AC8AE61021D7
:1014C0006160072A6144CDE91F210ADD1EAA594641
:1014D0000298139301F0EFFF002840F00F83139B55
:1014E00021A8103B04467DE6044697E610200344FD
:1014F000072A6060CDE91F2308DD1EAA594602981D
:1015000001F0D9FF002840F0F98221A90C9B103B83
:101510000C930C4688E60C46A3E6049A652A40F331
:101520004382B5EE408BF1EE10FA69D1724A226027
:101530000122134420931F9B62601344072B1F93C7
:1015400037DC0834189B039A934202DBE9077FF5E6
:1015500097AE0F9B2360099B6360099A209B1344FD
:1015600020931F9B0133072B1F932CDC0834039B14
:101570005E1E002E7FF784AE604F4FF01008DDE94D
:101580001F32102E03F1010304F10801276024DC4F
:101590006660072B1644CDE91F3640F38E821EAAE3
:1015A0005946029801F087FF002840F0A78221AC3D
:1015B00066E61EAA5946029801F07DFF002840F019
:1015C0009D8221ACBEE71EAA5946029801F073FF26
:1015D000002840F0938221ACC9E71032072BC4F8F1
:1015E0000480CDE91F3208DD1EAA5946029801F099
:1015F00062FF002840F0828221A9103E0C46BEE71F
:10160000189A002A7CDC3C4A226001221344209371
:101610001F9B62601344072B1F9346DC0834189B02
:1016200023B9039B13B9EA077FF52AAE0F9B23600A
:10163000099B6360099A209B134420931F9B0133ED
:10164000072B1F933BDC04F10803189E002E1BDAC6
:101650002A4F76421A461024DDE91F10102E01F1A0
:10166000010103F10803176033DC566007290644C3
:10167000CDE91F1608DD1EAA5946029801F01BFF8E
:10168000002840F03B8221AB039A5A600399209ACC
:10169000C3F800900A4420921F9A0132072A1F9231
:1016A0003FF77DAF03F10804EAE51EAA5946029808
:1016B00001F001FF002840F0218221ACAFE71EAA13
:1016C0005946029801F0F7FE002840F0178221AB3E
:1016D000BBE7103007295460CDE91F1008DD1EAAB2
:1016E0005946029801F0E7FE002840F0078221AB3E
:1016F000103E1A46B0E700BFD2430008E44300089A
:10170000039AB242A8BF3246002A90460ADD13442B
:1017100020931F9B0133072BC4E900921F9300F312
:101720008A800834B8F1000FACBFA6EB0808B046B9
:10173000B8F1000F1BDDDDE91F239A482060B8F1E6
:10174000100F02F1010204F108017EDC4344072A74
:10175000C4F80480CDE91F2340F38B801EAA5946AC
:10176000029801F0A8FE002840F0C88121AC6B056A
:101770004E4409D5059B002B7DD1002F7DD1039BC5
:101780004B449E4228BF1E46189B039A934201DB9E
:10179000EF070ED50F9B2360099B6360099A209B7E
:1017A000134420931F9B0133072B1F9300F3E58005
:1017B0000834039B039A09EB0307BB1B189FD71B35
:1017C0009F42A8BF1F46002F0BDD209B3B44209368
:1017D0001F9B0133072BC4E900671F9300F3D780D9
:1017E0000834189E039B002FA3EB0606A8BFF61B28
:1017F000002E7FF745AD6B4F4FF01008DDE91F322B
:10180000102E03F1010304F1080127607FF7C0AE39
:101810001032072BC4F80480CDE91F3208DD1EAA60
:101820005946029801F047FE002840F0678121A93F
:10183000103E0C46E2E71EAA5946029801F03BFE14
:10184000002840F05B8121AC6CE710200344072A9C
:101850006060CDE91F2308DD1EAA5946029801F0F9
:101860002AFE002840F04A8121A9A8F110080C4660
:1018700061E70C467BE7002F4ED0013F129B2360AF
:101880000E9B63600E9A209B134420931F9B013391
:10189000072B1F9347DC0834039B4B449A1B079B81
:1018A0001B789342A8BF1346002B98460ADDC4E973
:1018B0000063209B434420931F9B0133072B1F93FE
:1018C0003BDC0834079B1B78B8F1000FACBFA3EBDF
:1018D00008089846B8F1000F1ADDDDE91F233148EA
:1018E0002060B8F1100F02F1010204F108012EDCB2
:1018F0004344072AC4F80480CDE91F233BDD1EAA18
:101900005946029801F0D7FD002840F0F78021AC3D
:10191000079B1B781E442DE7079B013B0793059B04
:10192000013B0593AAE71EAA5946029801F0C3FDA0
:10193000002840F0E38021ACAEE71EAA5946029889
:1019400001F0B9FD002840F0D98021ACBAE71020A1
:101950000344072A6060CDE91F2308DD1EAA59460B
:10196000029801F0A8FD002840F0C88021A9A8F144
:1019700010080C46B1E70C46CAE71EAA5946029861
:1019800001F099FD002840F0B98021AC11E71EAAB2
:101990005946029801F08FFD002840F0AF8021AC3D
:1019A0001FE700BFE443000803981F99012803F1D3
:1019B000010201F1010104F1080301DCE80771D51E
:1019C00001200729C4F800906060CDE91F1208DDEE
:1019D0001EAA5946029801F06EFD002840F08E8044
:1019E00021AB0F9A1A60099A5A600999209A0A4401
:1019F00020921F9A0132072A1F9225DC0833039A8E
:101A0000B5EE408BF1EE10FA02F1FF3425D009F16A
:101A100001021F990398C3E90024209A0131013A79
:101A200002440729CDE91F1245DD1EAA5946029836
:101A300001F041FD002861D121AB1AAA1A60109A69
:101A40005A601099209A25E61EAA5946029801F07C
:101A500032FD002852D121ABD1E7002CEDDD3E4E06
:101A60001027DDE91F21102C02F1010203F108000B
:101A70001E6007DC5C60072A0C44CDE91F24D4DC1F
:101A80000346DAE71031072A5F60CDE91F2106DD42
:101A90001EAA5946029801F00EFD78BB21A8103C01
:101AA0000346DEE701200729C4F800906060CDE915
:101AB0001F12C2DDB9E70833BFE70C46FFF7E0BBF2
:101AC0000B9B0D9A9D1A002D7FF7DDAB234E10273F
:101AD000DDE91F32102D03F10103266018DC65607B
:101AE000072B1544CDE91F357FF7CDAB1EAA59460C
:101AF000029801F0E0FC00283FF4C5ABBAF1000FFA
:101B00003FF4D2A85146029800F066FEFFF7CCB829
:101B10001032072B6760CDE91F3202DC0834103D1C
:101B2000D6E71EAA5946029801F0C5FC0028E5D167
:101B300021ACF4E75146029800F04EFEFFF7BBBB24
:101B4000209B002B3FF4B0A81EAA5946029801F032
:101B5000B2FCFFF7A9B800BFE4430008D443000873
:101B6000024B13B1024800F005B8704700000000B6
:101B700009270008002301461A46184601F020BD37
:101B80002DE9F74F03690C69A3428046C0F28280B9
:101B9000013C01F114074FEA840C00F1140657F8D8
:101BA000245056F8240006EB0C03013507EB0C0912
:101BB0000193B0FBF5F595B34FF0000A3846B646F1
:101BC000D34650F8042B93B205FB03A34FEA134A04
:101BD0009BB2ABEB0303120CDEF800B005FB02A2D4
:101BE00013FA8BF34FEA124A1FFA82FBDEF8002049
:101BF000CBEB124202EB23429BB243EA0243814504
:101C00004FEA224B4EF8043BDBD256F80C3033B986
:101C1000019B043B9E421A4630D3C8F81040404610
:101C200001F024FB002825DB013530464FF0000C85
:101C300057F8042BD0F800E093B2ACEB0303120C7E
:101C400013FA8EF3C2EB1E4202EB23429BB243EA2D
:101C50000243B9454FEA224C40F8043BE8D256F81B
:101C6000242006EB84032AB9043B9E421A460BD378
:101C7000C8F81040284603B0BDE8F08F1268043B56
:101C8000002ACAD1013CC5E71268043B002AEFD103
:101C9000013CEAE70020EEE72DE9F04F95B057EC64
:101CA000106B0891016C0A92044611931E9DCDE9B8
:101CB000046741B1426C4A60012393408B6001F09C
:101CC00010F9002323643B1EBBBF23F000430593A0
:101CD00000230122ACBF2B602A60A94B059DAB43BA
:101CE0001BD1119A42F20F731360049B23B9C5F301
:101CF0001305002D00F0D9841F9B0BB9A14B20E0E8
:101D0000A04B029303331F9A1360029815B0BDE8ED
:101D1000F08F9D4B02930833F5E79DED047BB5EE04
:101D2000407BF1EE10FA8DED027B0CD1119A01236C
:101D300013601F9B002B00F0B584944B1F9A136017
:101D4000013B0293E1E713A912AA9DED020B204685
:101D500001F003FBC5F30A5601901299002E46D0FC
:101D60000398C0F31300DDE9022340F07F5343F4EE
:101D70004013A6F2FF3A002707EE90AA43EC162B79
:101D8000B8EEE75B9FED784BB7EE087B36EE477B0E
:101D90009FED776BA7EE046BB0EE467B9FED766B05
:101DA000A5EE067BFDEEC76BB5EEC07BF1EE10FA3B
:101DB00016EE90BA08D5B8EEE66BB4EE476BF1EECE
:101DC00010FA18BF0BF1FF3BBBF1160F34D8704B64
:101DD00003EBCB0393ED007B9DED046BB4EEC67B70
:101DE000F1EE10FA01DD0BF1FF3B002325E0139B20
:101DF00001EB030A0AF23243202B17DDC3F1400343
:101E0000049A9D400AF2124322FA03F32B4307EE91
:101E1000903AB8EE677B0AF1FF3A8DED027B0398AA
:101E2000DDE902230127A0F1F873A5E7049AC3F1C5
:101E3000200302FA03F3EAE70123A1EB0A0A109355
:101E4000BAF10103079343BF0023CAF1010A0793C4
:101E50004FF0000ABBF1000F19DB079BCDF82CB047
:101E60005B4407934FF00008089B092B63D8052BB0
:101E7000C4BF043B0893089BA3F10203CCBF002519
:101E80000125032B63D8DFE803F0525409460023F1
:101E9000AAEB0B0ACBF100080B93E5E701230993AA
:101EA0000A9B002B56DD06939946002262640422A9
:101EB00002F114009842616C51D9204600F0ECFF09
:101EC000B9F10E0F0290206400F2C180002D00F0E5
:101ED000BE809DED047BBBF1000F8DED0E7B40F3CA
:101EE000E5802B4A0BF00F0302EBC30393ED007B5D
:101EF0004FEA2B13DA0640F1D780264A9DED0E5BA0
:101F000092ED086B85EE066B8DED046B03F00F030D
:101F10000322204949E0012309930A9B5B4403F112
:101F2000010906934B46012BB8BF0123BDE70023EF
:101F3000B5E70023F0E701250023CDE908354FF090
:101F4000FF3306939946002212230A92ADE701233C
:101F50000993F4E70123069399461A46F5E7013100
:101F600061645200A4E700BF61436F63A787D23F5B
:101F7000B3C8608B288AC63FFB799F501344D33F78
:101F80000000F07FFD430008F4430008D34300083D
:101F90003044000808440008DE0704D591ED006BCA
:101FA000013227EE067B5B100831002BF4D19DED4A
:101FB000046B86EE077B8DED047B109B002B00F0FD
:101FC000A780B7EE006B9DED047BB4EEC67BF1EE0F
:101FD00010FA40F19D80B9F1000F00F09980069B46
:101FE000002B30DDB2EE046B27EE067B8DED047B1B
:101FF000069D0BF1FF3301329DED046BB1EE0C5BDE
:1020000007EE902AB8EEE77BA7EE065B8DED045B4A
:10201000059ADDE90401A2F15071002D7BD1B1EEEA
:10202000047B36EE476B41EC170BB4EEC76BF1EE59
:1020300010FA00F35382B1EE477BB4EEC76BF1EEBA
:1020400010FA00F14982DDE90E23CDE90423139B48
:10205000002BC0F21981BBF10E0F00F31581C34BA9
:1020600003EBCB0393ED006B0A9B002B80F2BA804D
:10207000B9F1000F00F3B68040F02D82B1EE047B81
:1020800026EE076B9DED047BB4EEC76BF1EE10FA04
:102090004D464F4680F20482029B029A5E1C312319
:1020A00013700BF1010BFFE1022232E72ED0CBF1CE
:1020B0000003AE4A03F00F0102EBC10292ED007B78
:1020C0009DED0E6B26EE077B8DED0C7BDDE90C1292
:1020D000CDE90412A6491B11002002223BB90028B9
:1020E0003FF46BAFDDE90C01CDE9040165E7DD07E5
:1020F00009D59DED0C6B91ED007B26EE077B8DEDF8
:102100000C7B013201205B100831E7E7022254E723
:102110005B464D4670E7954A02EBC50212ED024B55
:10212000099A41EC170B5AB3B6EE003BB7EE002B01
:10213000029E83EE045BB2EE043B35EE477BFDEE80
:10214000C64B14EE902AB8EEE45B303236EE456BA7
:10215000B4EEC76BF1EE10FA06F8012B3BD432EE69
:10216000465BB4EEC75BF1EE10FA72D4029AB21A73
:1021700095427FF768AF27EE037B26EE036BDEE721
:10218000029A24EE077B56191146B2EE043BFDEE8F
:10219000C64B14EE902A303201F8012BB142B8EE52
:1021A000E45B36EE456B1AD1B6EE005B37EE054BBD
:1021B000B4EEC46BF1EE10FA4BDC35EE477BB4EEB7
:1021C000C76BF1EE10FA7FF53EAF16F8012C302AFE
:1021D00006F1FF3101D09B462AE00E46F5E726EED8
:1021E000036BD4E79DED047BB2EE044B029E87EEB9
:1021F000065BBDEEC55B15EE103A303306F8013BC9
:10220000029BF31A9945B8EEC53BA3EE467B33D14A
:1022100037EE077BB4EEC67BF1EE10FA18DCB4EEB5
:10222000467BF1EE10FA03D115EE103ADB070FD41E
:102230000199204600F055FE0023119A33700BF1EE
:10224000010313601F9B002B3FF45FAD1E605CE534
:102250005B4616F8011C392906F1FF3206D10299B6
:10226000914207D130220A7001330A4611780131B8
:102270001170B0E71646ECE727EE047BB5EE407B25
:10228000F1EE10FAB3D1D3E7099A002A00F08D805D
:10229000089A012A72DC002F6CD003F233434546C2
:1022A0005646079A01211A4420469A44079200F0A4
:1022B000AAFE0746002E0BDD079B002B08DDB3426C
:1022C000079AA8BF3346AAEB030AF61AD31A079354
:1022D000B8F1000F1DD0099B002B6AD08DB1394693
:1022E0002A46204600F02EFF019A01460746204666
:1022F00000F092FE01990C90204600F0F2FD0C9B3C
:102300000193B8EB050204D00199204600F01AFFB2
:1023100001900121204600F076FE0B9B0546002B24
:1023200000F0CA811A460146204600F00BFF089BC8
:10233000012B054644DC049B002B3CD1059BC3F3D9
:102340001303002B37D1059B23F000431B0D1B0506
:10235000002B33D0079B01330AF1010A07934FF09A
:1023600001080B9B73BB012034E000BF3044000820
:1023700008440008129BC3F1360390E709F1FF35CA
:10238000A845BFBF0B9BA5EB080843440B93B6BF02
:10239000A846A8EB05050025B9F1000FB9BFAAEBC7
:1023A0000906002356464B467BE745465646099F9D
:1023B00080E74246A8E74FF00008D2E79846D0E70A
:1023C0004FF000082B6905EB8303186900F0CDFD81
:1023D000C0F12000079B184410F01F0047D0C0F147
:1023E0002003042B3BDD079BC0F11C008244064404
:1023F00003440793BAF1000F05DD524601992046C8
:1024000000F0E0FE0190079B002B05DD29461A46EF
:10241000204600F0D7FE0546109B53B3294601988D
:1024200000F024FF002824DA00230A220199204624
:1024300000F060FD099B01900BF1FF3B002B00F0C9
:102440004281002339460A22204600F053FD069BB4
:10245000002B07464BDC089B022B48DD11E0C9D05E
:10246000079A1C331A449A441E441346C1E7034694
:10247000F6E7B9F1000F34DC089B022B31DDCDF813
:102480001890069B63B929460522204600F032FDCC
:1024900001460546019800F0E9FE00283FF7FCAD33
:1024A0000A9B029E6FEA030B4FF000092946204663
:1024B00000F017FD002F3FF4BBAEB9F1000F05D0BF
:1024C000B94503D04946204600F00BFD3946204669
:1024D00000F007FDACE600252F46E1E79B462F46BE
:1024E000DAE5099BCDF81890002B00F0F380002E60
:1024F00005DD39463246204600F064FE0746B8F155
:10250000000F4CD07968204600F0C6FC3A690232D0
:102510000646920007F10C010C30FEF7ECF80122A0
:102520003146204600F04EFE049BDDF808A003F083
:102530000103B9460793074629460198FFF720FB98
:102540004946064600F13008019800F08FFE3A46F1
:1025500004902946204600F0A3FEC368024603BB50
:1025600001460990019800F081FE099A0346114640
:102570002046099300F0B5FC099BA3B9089A92B9CB
:10258000079A82B9B8F1390F29D0049B002B01DDDD
:1025900006F131080AF101068AF8008086E738461C
:1025A000C2E70123E3E7049A002A04DB24D1089A56
:1025B00012BB079A02BB002BECDD012201992046D9
:1025C00000F000FE2946019000F050FE002803DCD8
:1025D000E0D118F0010FDDD0B8F1390FD8D139238F
:1025E0000AF101068AF8003016F8013C392B06F191
:1025F000FF324CD0013351E0002B0AF1010605DD1A
:10260000B8F1390FEBD008F10108C5E7029B069A33
:1026100006F8018CF31A934221D000230A22019973
:10262000204600F067FCB94501904FF000034FF0E1
:102630000A024946204605D100F05CFC8146074667
:10264000B24679E700F056FC3946814600230A225B
:10265000204600F04FFC0746F2E74FF00009012248
:102660000199204600F0AEFD2946019000F0FEFDE4
:102670000028B9DC02D118F0010FB5D116F8013CE1
:10268000302B06F1FF327FF411AF1646F6E7029BBE
:10269000934205D1029A0BF1010B3123137005E728
:1026A0001646A1E7164BFFF74CBB1F9B002B7FF490
:1026B00030AB144BFFF745BB089B012B7FF73BAEBC
:1026C000DDF82C804FE6069B002B03DC089B022BD9
:1026D0003FF7D7AE029E01982946FFF751FA00F165
:1026E000300806F8018B029B069AF31A9A42B4DD71
:1026F00000230A220199204600F0FCFB0190EAE742
:10270000D2430008F443000838B5074D074C641B5A
:10271000A4101CB9BDE8384001F0D0BF013C55F809
:1027200024309847F5E700BFC8460008CC460008AB
:102730002DE9F041054608200C4600F034FF234FF8
:102740008046284600F09CFBBB685E6826F00306C6
:10275000341B113C4444B4FBF8F4013C08FB04F482
:10276000A04505DD284600F091FB0020BDE8F08182
:102770000021284600F07AFEBB6833449842F1D12C
:102780006142284600F072FE013010D10021284637
:1027900000F06CFEBA68831A0F2BE3DD0C49096860
:1027A000401A0C4943F0010308605360DAE7BB6844
:1027B000084A361B46F001065E60136828461C1B5B
:1027C000146000F063FB0120D0E700BF3404002058
:1027D0003C080020DC0900202DE9F0410446884631
:1027E000002900F0AB8000F04BFB58F8042C544D4E
:1027F00022F00100A8F108031F18A9687E68B942F9
:1028000026F0030602F001021BD130443AB958F811
:10281000082C9B1A1044D3E90212CA60916040F060
:1028200001025A60AB60474B1B68834204D8464B99
:1028300020461968FFF77CFF2046BDE8F04100F014
:1028400025BB7E60002A39D158F8081C5B1A084461
:10285000996805F1080C614532D0D3F80CC0C1F875
:102860000CC0CCF80810B9194968C9070AD430441B
:10287000B9683ABB354EB14224D1C5E90433C3E946
:102880000211012240F0010159601850002AD3D1F1
:10289000B0F5007F1AD2C008811001228A40696811
:1028A00001300A436A6055F8301005EBC002083A5F
:1028B000C3E9021245F83030CB60BDE70022D2E711
:1028C0000122D0E7FE68CE60B160DBE7420A042A4D
:1028D00013D882093832511C05EBC20655F8311065
:1028E0008E4224D10120921000FA02F2686802435D
:1028F0006A60C3E90216B360DEE7142A01D85B32CE
:10290000E9E7542A02D8020B6E32E4E7B2F5AA7F57
:1029100002D8C20B7732DEE740F254518A429ABFA6
:10292000820C7C327E22D6E789688E4204D04A68C7
:1029300022F003028242F7D8CE68DAE7BDE8F081E0
:1029400034040020400800200C0A00203C04002031
:10295000044B1B68586B044B002808BF1846F03026
:10296000704700BF000000204408002070477047F7
:102970002DE9F74F01F10B05162D064606D935F066
:10298000070504D50C2333600024A8E110258D42EF
:10299000F8D3304600F074FAB5F5FC7FC04F38D25A
:1029A00005F108023A44A2F1080154688C424FEA4A
:1029B000D50302D1D468A24210D06368D4E90212D0
:1029C00023F00303CA60234491605A6842F0010275
:1029D0005A60304600F05AFA083480E10233B14AB6
:1029E0003C699442114675D0606820F0030CACEB52
:1029F00005000F2848DD631945F001056560C7E94A
:102A00000433C3E9022240F001025A6044F80C008A
:102A1000DFE76B0A2AD0042B12D8AB0938335A1CD3
:102A200007EBC202A2F1080C5468644506D0626844
:102A300022F00302501B0F281CDD013B0133CEE7BF
:102A4000142B01D85B33EAE7542B02D82B0B6E33DF
:102A5000E5E7B3F5AA7F02D8EB0B7733DFE740F267
:102A60005452934204D8AB0C7C33D8E73F23D6E7CB
:102A70007E23D4E70028E16804DBA368D9608B607B
:102A8000A318A2E70C46D0E70028C7E9042207DB19
:102A9000A444DCF8043043F00103CCF8043098E798
:102AA000BCF5007F786880F099804FEADC0C4FEA33
:102AB000AC0E01220CF1010C02FA0EF21043786008
:102AC00007EBCC0257F83C00083AC4E9020247F889
:102AD0003C40C46001209A1000FA02F278689042EB
:102AE00026D3104206D123F003035200104203F113
:102AF0000403FAD007EBC30CE1469846D9F80C4022
:102B00004C4540F0AF8008F1010818F0030F09F1BF
:102B10000809F3D1980740F0E8807B6823EA0203B4
:102B20007B6078685200904202D3002A40F0EC802B
:102B3000D7F808A0DAF8044024F00302AA4203D32D
:102B4000531B0F2B00F34081574B009208201C6849
:102B500000F029FD554B009A1968103401312C44BE
:102B60001FBF04F1FF34241841420C408046214627
:102B70003046CDE9002300F079FCB0F1FF3F8346F9
:102B800000F0FB80009A019B0AEB0201814202D90E
:102B9000BA4540F0F280DFF82091D9F8000059459D
:102BA00000EB040EC9F800E008F1FF3C40F0AE80F5
:102BB00011EA0C0F40F0AA80BB68144444F00104F1
:102BC0005C603B4AD9F8003011688B4288BF1360C3
:102BD000384A11688B4288BF1360CEE04FEA5C220E
:102BE000042A18D84FEA9C12383202F1010E07EB82
:102BF000C20857F83EE0F0452BD192104FF0010C7F
:102C00000CFA02F210437860C4E902E8C8F8084000
:102C1000CEF80C405EE7142A01D85B32E5E7542A6F
:102C200003D84FEA1C326E32DFE7B2F5AA7F03D831
:102C30004FEADC327732D8E740F2545E72459ABFF1
:102C40004FEA9C427C327E22CFE7DEF808E0F04576
:102C500005D0DEF8042022F003026245F5D8DEF844
:102C60000C80D1E76068D4F80CE020F00300A0EB02
:102C7000050ABAF10F0F21DDA268631945F00105BD
:102C80006560C2F80CE0CEF808204AF00102C7E9FE
:102C90000433C3E902115A6044F800A099E600BF6A
:102CA000340400203C0400200C0A00203C080020D2
:102CB000040A0020080A0020DC090020BAF1000FF5
:102CC00011DB2044436843F00103436054F8083F9C
:102CD0003046C3F80CE0CEF8083000F0D7F82046B4
:102CE00003B0BDE8F08F74460AE7ACF10800DCF8E9
:102CF00000C0844503F1FF333FF40CAF11E7043308
:102D000052001042FBD0F5E64346FAE718680092FD
:102D100001301BBFABEB01017144C3F800B0C9F82F
:102D200000101BF007031CBFC3F108039B445C4465
:102D3000984404EA0C03A8EB03084146304600F02F
:102D400095FB431C04BF58464FF00008D9F80030EB
:102D5000C7F808B0A0EB0B004044434440F001002A
:102D6000BA45009AC9F80030CBF804003FF429AF07
:102D70000F2A10D80123CBF80430BB685A6822F020
:102D80000302AA42A2EB050301D30F2B1CDC304641
:102D900000F07CF8F8E5DAF80430A2F10C0424F035
:102DA000070403F001032343CAF8043005220AEBA9
:102DB00004030F2CC3E901227FF603AF0AF10801D7
:102DC0003046FFF709FDFCE6BC6845F001022544EA
:102DD00043F001036260BD606B60FAE50000000033
:102DE00001F0FF01102A2BDB10F0070F08D010F8BC
:102DF000013B013A8B422DD010F0070F42B3F6D1C0
:102E0000F0B441EA012141EA014122F007047FF0D8
:102E100000070023F0E80256083C85EA010586EA2F
:102E2000010685FA47F5A3FA87F586FA47F6A5FA6B
:102E300087F68EB9EED1F0BC01F0FF0102F0070277
:102E400032B110F8013B013A83EA010313B1F8D122
:102E50000020704701387047002D06BF3546033803
:102E6000073815F0010F07D1013015F4807F02BF3C
:102E7000013015F4C03F0130F0BC0138704700BF8D
:102E80000148FFF773BD00BF460A00200148FFF765
:102E90006EBD00BF460A0020C36C70B505460C46E7
:102EA0007BB1EB6C53F82400A0B9012101FA04F6C0
:102EB000721D9200284600F0D9FB48B1C0E90146D6
:102EC0000BE02122042100F0D1FBE8640028E8D1C6
:102ED000002070BD026843F824200023C0E90333BA
:102EE000F7E731B1C36C4A6853F82200086043F831
:102EF000221070472DE9F0410D691F4606460C4629
:102F000001F1140C0023DCF8000081B202FB017116
:102F10000F0C000C02FB007089B2013301EB004181
:102F20009D424FEA10474CF8041BECDCD7B1A36874
:102F3000AB4212DC616830460131FFF7ADFF226918
:102F4000023204F10C01804692000C30FDF7D3FBF5
:102F500021463046FFF7C5FF444604EB85030135A3
:102F60005F6125612046BDE8F081020C1204034632
:102F7000B2B90304102013F07F4F04BF1B020830C6
:102F800013F0704F04BF1B01043013F0404F04BF17
:102F90009B000230002B06DB5B0003D5013070473D
:102FA0000020E8E720207047036813F0070201467D
:102FB0000BD0DA0723D4980749BF5B089B08012090
:102FC0000B605CBF0B600220704798B2A8B91B0C65
:102FD000102013F0FF0F04BF1B0A08301A0704BFAC
:102FE0001B0904309A0704BF9B080230DA0702D499
:102FF0005B0806D001300B6070471046E9E70020FF
:1030000070472020704710B50C460121FFF744FFA0
:1030100001224461026110BD2DE9F74F14460A698F
:1030200023699A42B8BF0B468846BCBFA0461C46DF
:10303000D8F81070D4F81090D8F80830D8F80410E8
:1030400007EB0906B342B8BF0131FFF725FF00F1D6
:10305000140505EB860E2B460022734516D304F1AA
:10306000140208F1140102EB890301EB87070093B6
:10307000009B019293420CD8002E03DD5EF8043DC4
:10308000002B5DD0066103B0BDE8F08F43F8042B40
:10309000E3E7B2F800B0BBF1000F23D08946AC469D
:1030A0004FF0000859F8044BDCF800A0A3B21FFA57
:1030B0008AFA0BFB03A34FEA144ADCF800404344AE
:1030C0004FEA14480BFB0A8404EB1344E2469BB21C
:1030D00043EA04434F454FEA14484AF8043B2BD8CF
:1030E000CCF80480019BB3F802A00432BAF1000FBF
:1030F00020D02B688946A8464FF0000BB9F800C0D5
:10310000B8F802400AFB0C445C44C4469BB243EA54
:1031100004434CF8043B59F8043BB8F804B01B0CCA
:103120000AFB03B303EB14434F454FEA134B05D897
:10313000C8F8043004359BE7D446B3E7E046DDE742
:10314000013E99E72DE9F843154612F003020646C1
:103150000F4607D0013A1A4C002354F82220FFF7FB
:10316000C9FE0746AD1027D0B46C44B940F27121B6
:103170003046FFF748FF0023B064044603604FF079
:103180000008EB070AD5394622463046FFF744FFD0
:10319000394681463046FFF7A4FE4F466D100BD0EE
:1031A000206838B9224621463046FFF735FF2060B7
:1031B000C0F800800446E4E73846BDE8F88300BF65
:1031C000F84400082DE9F0470C464FEA621A2369DB
:1031D00049680AEB0309A3680746164609F1010589
:1031E000AB4232DB3846FFF757FE0023804600F142
:1031F00014011A4653452BDB20692AEAEA7A04F1C6
:10320000140316F01F0201EB8A0103EB800C25D09A
:10321000C2F1200E00201E688A46964030434AF8CC
:10322000040B53F8040B9C4520FA0EF014D84860A8
:1032300008B109F10205013D3846C8F81050214691
:10324000FFF74FFE4046BDE8F08701315B00C7E75E
:1032500041F823200133CDE75146DCE7043953F828
:10326000042B41F8042F9C45F9D8E4E703690A6967
:103270009B1A30B50CD192001430143184181144CB
:1032800054F8045D51F8042D954203D005D3012371
:10329000184630BDA042F3D3FAE74FF0FF33F7E70B
:1032A0002DE9F0470D460746114628461446FFF71C
:1032B000DDFF061E08D131463846FFF7EDFD01233C
:1032C000C0E90436BDE8F087A4BF23462C46384643
:1032D0006168A6BF1D4600260126FFF7DDFD2B69AC
:1032E000C660266905F1140904F1140202EB860791
:1032F00009EB830800F114054FF0000E52F804ABFF
:1033000059F8044B1EFA8AF1A3B2C91A230CC3EB75
:103310001A4303EB214389B24FEA234EC84541EAE1
:103320000343944645F8043BE8D8BC4504D355F81C
:10333000043D83B10661C5E75CF8041B1EFA81F306
:103340001A1402EB11429BB243EA02434FEA224EA7
:1033500045F8043BE9E7013EE9E72DE9F7430E466E
:10336000012159EC108B1546FFF796FDC9F30A545D
:103370000746C9F3130334BB0193B8F1000327D008
:1033800002A840F8083DFFF70FFE0099F0B1019A3E
:10339000C0F1200302FA03F30B43C2407B610192A8
:1033A000019BBB61002B14BF022101213961C4B113
:1033B000A4F2334404443460C0F135002860384638
:1033C00003B0BDE8F08343F48013D5E77961E7E704
:1033D00001A8FFF7E9FD019B7B61012139612030E4
:1033E000E5E707EB8103A0F2324030601869FFF790
:1033F000BCFDC0EB4110E1E782B08DED000B002178
:10340000019A0160184922F000438B4223DC0099A5
:10341000194320D0B3F5801F0BDA9FED117B20EE0E
:10342000077B8DED007B019A6FF0350122F00043A0
:10343000016001681B15A3F2FE330B4422F0FF422A
:10344000036022F4E002DDE9000142F07F5141F423
:103450000011CDE900019DED000B02B0704700BFE7
:103460000000000000005043FFFFEF7F38B5064C1E
:103470000023054608462360FCF74EFF431C02D19B
:10348000236803B12B6038BD4C0A002070B50139A8
:10349000044602B970BD234611F8015F03F8015BD1
:1034A000561E2DB91444A342F4D003F8015BFAE789
:1034B0001C463246EDE793682DE9F74F81460C46EE
:1034C0001646002B5ED04FF0000BD2F800A05F46EE
:1034D00057B3A3689F4240D3A28912F4906F3CD0A7
:1034E00025682169A5EB01086569022305EB4505FF
:1034F00095FBF3F508F101033B449D4238BF1D469F
:10350000530544D529464846FFF732FA88B90C23BB
:10351000C9F80030A38943F04003A3810023C6E922
:1035200001334FF0FF302FE0DAE900B70AF1080A63
:10353000CEE7424621690190FDF7DDF8A289019BA3
:1035400022F4906242F08002A281236165614344CB
:10355000A5EB08052360A5603B46BB4228BF3B4660
:103560001A46594620680193FDF7D0F8A268019BDE
:10357000D21AA260226813442360B368DF1BB760CD
:10358000002FD1D10020706003B0BDE8F08F2A4633
:10359000484600F0B1F803460028D6D121694846D4
:1035A000FFF71AF9B3E7082808B506D000F08CF841
:1035B000162303604FF0FF3008BD4FF48050FBE747
:1035C0002DE9F843264C0646206898460F4691465A
:1035D000FFF7CCF9234B1D68D5F8480118B905F55C
:1035E000A670C5F8480143681F2B19DD1E4B33B97F
:1035F0002068FFF7BCF94FF0FF30BDE8F8834FF4C7
:10360000C870AFF300800028F2D0D5F848310360CD
:1036100000224260C5F84801C0F88821C0F88C211A
:1036200043689EB100EB83050122C5F88890D0F86D
:1036300088119A401143022EC0F88811C5F80881FC
:1036400002BFD0F88C110A43C0F88C215A1C0233F7
:10365000426040F823702068FFF789F90020CCE72A
:10366000300400209C4300080000000010B55143C6
:10367000FFF77EF9044698B150F8042C22F00302BB
:10368000043A242A1BD8132A17D900211B2AC0E97F
:10369000001107D800F108030022C3E900229A6054
:1036A000204610BD242AC0E9021111BF00F1100309
:1036B000016100F118034161EEE70346ECE70021E8
:1036C000FDF73DF8ECE70000014B1868704700BFBC
:1036D0000000002082B001B901A942B14BB11378BA
:1036E0000B601278101C18BF012002B07047104602
:1036F000FBE76FF00100F8E72DE9F74F82460C4633
:1037000029B9114603B0BDE8F04FFFF731B9019276
:10371000FFF7B6FB019A54F8045C02F10B08B8F10C
:10372000160FA4F1080925F003060BD938F0070895
:103730000AD50C23CAF800304FF0000B584603B0EE
:10374000BDE8F08F4FF010089045F2D3B04540F33C
:103750007081A9490191D1F808C009EB06039C4585
:10376000586805D020F0010119444968CF0747D4B3
:1037700020F003009C4506EB000719D108F1100169
:10378000B9423FDC09EB0803019AA7EB080747F0B1
:10379000010793605F6054F8043C03F0010343EABF
:1037A000080344F8043C5046FFF770FBA346C5E706
:1037B000B84527DCD3E90232DA609360A7EB080052
:1037C000D9F804200F2802F0010209EB070340F2A8
:1037D000328109EB080148EA020240F00100C9F811
:1037E000042048605A6842F001025A60083150468D
:1037F000FEF7F2FF5046FFF749FB09F1080B9DE782
:1038000000200346E90700F1C68054F8085CA9EBE4
:103810000505696821F0030101EB060B002B00F0A0
:1038200086809C4500EB0B0749D108F11003BB4291
:103830007DDCAB46EB685BF8082FD3609A60321FE3
:10384000242A37D8132A33D92368AB606368EB6026
:103850001B2A1BD8083405F1100322681A6062681D
:103860005A60A2689A6005EB0803019AA7EB080763
:1038700047F0010793605F606B6803F0010343EA60
:1038800008036B605046FFF701FB57E7A3682B6105
:10389000E3686B61242A01BF2369AB616269EA6155
:1038A00019BF103405F1180305F120031834D4E7CB
:1038B0005B46D2E721465846FCF728FFD3E7B845D8
:1038C00035DCD3E902322846DA60936050F8082FDD
:1038D000EB68D3609A60321F242A24D8132A08D9AF
:1038E0002368AB606368EB601B2A0AD8083405F1D3
:1038F00010002368036063684360A3688360A9467F
:103900005CE7A3682B61E3686B61242A01BF23692C
:10391000AB616369EB6119BF103405F1180005F163
:1039200020001834E5E72146FCF7F0FEE7E7D8452C
:1039300031DC2846EB6850F8082FD3609A60321FBC
:10394000242A24D8132A08D92368AB606368EB6063
:103950001B2A0AD8083405F1100023680360636845
:103960004360A36883605F46C9E7A3682B61E3688F
:103970006B61242A01BF2369AB616369EB6119BFE5
:10398000103405F1180005F120001834E5E7214650
:10399000FCF7BCFEE7E711465046FEF7E9FF834619
:1039A00000283FF46FAF54F8043C23F001034B446C
:1039B000A0F10802934205D150F8047C27F00307D8
:1039C0003744FBE6321F242A2FD8132A2AD923682A
:1039D0000360636843601B2A10D804F1080200F1F9
:1039E0000803116819605168596092689A6021460D
:1039F0005046FEF7F1FE45E734040020A3688360DB
:103A0000E368C360242A01BF2369036161694161DE
:103A100019BF04F1100200F1100304F1180200F1C3
:103A20001803DEE703462246DBE72146FCF76EFE7D
:103A3000DDE73746C2E61743C9F804705A6842F01A
:103A400001025A60D6E600BF49B1FF2A85BF8A232A
:103A500003600A704FF0FF3098BF0120704708469E
:103A60007047436901EA030221EA030141EA024186
:103A7000816170472DE9F04105680026C4684FF068
:103A8000030E43FA06F7FF070DD577000EFA07FC81
:103A900001FA07F802FA07F725EA0C0524EA0C04F4
:103AA00048EA05053C430136102EEAD10560C460A2
:103AB000BDE8F081012941680CBF19439943F0B575
:103AC000416000248168032643FA04F5ED0707D519
:103AD000650006FA05F702FA05F521EA0701294310
:103AE0000134102CF0D18160F0BDF0B50023076ADD
:103AF0004FF00F0C466A42FA03F4E50707D59D0024
:103B00000CFA05F401FA05F527EA04072F430133FF
:103B1000082BF0D14FF00F0C42FA03F4E40708D55C
:103B20009C00203C0CFA04F501FA04F426EA050690
:103B300026430133102BEFD107624662F0BD00002F
:103B40000E4B984214D008D8A3F50063984208D0D1
:103B500003F58063984208D07047094B98420AD019
:103B6000704740F2154000F067B940F21640FAE79E
:103B700040F21740F7E74FF48360F4E7005C004041
:103B800000600040036843F001030360704703686E
:103B900023F0010303607047036823F4805303603C
:103BA0007047036823F4706343EA012101607047A2
:103BB000036923F0704343EA0171016170470369AF
:103BC00023F4700343EA015101617047036923F450
:103BD000702343EA014101617047036923F47F4385
:103BE00043EA012101617047036923F0FF03194390
:103BF00001617047012910B5044611D0022923D074
:103C00009208511EC9B2FFF7D3FF1321FFF7ECFF53
:103C10000F21FFF7E2FF0221FFF7D8FF04210EE09A
:103C2000D208511EC9B2FFF7C3FF0921FFF7DCFF1D
:103C30000321FFF7D2FF0321FFF7C8FF032120462E
:103C4000BDE81040FFF7BBBF10BD0000024A13687B
:103C50009B01FCD5704700BF00380240034A13683F
:103C600003F00303022BFAD1704700BF083802406B
:103C7000042808D8DFE800F017120D0803000B4AEB
:103C800013689B07FCD57047094A13689907FCD550
:103C90007047084A13689807FCD57047054A1368AF
:103CA0009B03FCD57047FFF7D1BF00BF74380240BB
:103CB0007038024000380240042809D8DFE800F0DC
:103CC00003090E1315000A4A136843F0807313604A
:103CD0007047074A136843F48033F8E7044A1368CF
:103CE00043F00103F3E7034AF9E7034AF7E700BFAC
:103CF000003802407038024074380240034A1368AA
:103D000023F0030318431060704700BF08380240D7
:103D1000034A136823F4604343EA4030106070475D
:103D200008380240034A136823F4E05343EA802032
:103D30001060704708380240034A136823F0F0030C
:103D400043EA0010106070470838024040EA0363FD
:103D500043EA81115308034A013B41EA03431360DC
:103D6000704700BF0438024010B504460220FFF738
:103D7000A3FF0220FFF77CFF0020FFF7BFFF40F604
:103D80001C0000F04BF8E07A00F048F9237B0BB1FF
:103D900000F05EF9207AFFF7CFFF607AFFF7C2FFED
:103DA000A07AFFF7B5FF21881020E378A278FFF70B
:103DB000CDFF0E4A136843F080731360FFF746FF90
:103DC000606800F019F900F021F900F00DF9022007
:103DD000FFF794FFFFF742FF2269054B1A60626903
:103DE000044B1A60A269044B1A6010BD00380240EF
:103DF000B0090020B4090020B8090020044B20F4C9
:103E0000806098420CBF034B034B1868704700BF9B
:103E100000380040B4090020B809002043090122FD
:103E200000F01F0003F1804302FA00F003F50E33A7
:103E300019680843186070474309012200F01F0009
:103E400003F1804302FA00F003F50E3319680143D1
:103E500019601A6822EA000018607047C3681943A5
:103E6000C1607047C94301617047036843F00803AC
:103E700003607047036823F008030360704703681A
:103E800043F001030360704781627047C16270476D
:103E900010B5074A20F48064064B94421B6804BFA7
:103EA000054B1B6803EB5103B3FBF1F1C16010BD7F
:103EB00000100140B4090020B80900200368082957
:103EC0000CBF23F4805343F480530360704743686E
:103ED00023F44053194341607047036823F4C063DF
:103EE000194301607047036823F00C031943016014
:103EF0007047836823F440731943816070470368F7
:103F000043F001030360704713B50446019100F0CC
:103F10000BF80199204602B0BDE8104000F000B84F
:103F2000C1F3080181627047C3691B06FCD5704765
:103F3000FEE7704738B51A4A1A4B1B498B421BD310
:103F40001A4A002193421CD3194A1A4C13681A4D7D
:103F500043F400731360536F43F470035367AC4230
:103F600012D3164C164DAC4212D3164CFCF768FA1D
:103F7000154DAC4210D338BD52F8040B43F8040B76
:103F8000DCE743F8041BDDE754F8043B9847E6E719
:103F900054F8043B9847E6E754F8043B9847E8E7B1
:103FA000D446000800000020BC090020500A002070
:103FB00014ED00E0C0460008C0460008C0460008F6
:103FC000C8460008C8460008CC4600084209054B10
:103FD00000F01F0003EB8203012202FA00F01860D8
:103FE000704700BF00E100E0024A136843F48073A9
:103FF00013607047003C0240034A136823F00F032C
:1040000018431060704700BF003C0240024A13682A
:1040100043F4007313607047003C02400B4B1A6876
:1040200022F440421A6020B91A6842F440421A60F1
:104030007047012803D11A6842F40042F7E70228CA
:10404000F6D11A6842F48042F1E700BF00700040E8
:10405000084B1A6842F480321A60074A1146106809
:10406000C003FCD51A6842F400321A600B689B0347
:10407000FCD57047007000400470004053B94AB945
:10408000002908BF00281CBF4FF0FF314FF0FF3060
:1040900000F072B9ADF1080C6DE904CE00F006F83D
:1040A000DDF804E0DDE9022304B070472DE9F047B4
:1040B000089E04468846002B4BD18A42154667D994
:1040C000B2FA82F24AB1C2F1200701FA02F320FAF1
:1040D00007F7954047EA030894404FEA154E230C32
:1040E000B8FBFEF71FFA85FC0EFB178843EA08436E
:1040F00007FB0CF1994209D9EB1807F1FF3080F06A
:104100001B81994240F21881023F2B445B1AA4B2F2
:10411000B3FBFEF00EFB103344EA034400FB0CFC3F
:10412000A44509D92C1900F1FF3380F00781A4457B
:1041300040F2048102382C4440EA0740A4EB0C040E
:1041400000271EB1D4400023C6E900433946BDE82C
:10415000F0878B4209D9002E00F0EB800027C6E9DA
:10416000000138463946BDE8F087B3FA83F7002FDF
:1041700047D18B4202D3824200F2FA80841A61EB6B
:10418000030301209846002EE0D0C6E90048DDE791
:1041900002B9FFDEB2FA82F2002A40F08F80491B9A
:1041A0004FEA154E1FFA85F80127B1FBFEFC230CE0
:1041B0000EFB1C1143EA014308FB0CF1994207D99D
:1041C000EB180CF1FF3002D2994200F2CD80844608
:1041D000591AA3B2B1FBFEF00EFB101443EA0444DB
:1041E00008FB00F8A04507D92C1900F1FF3302D2D3
:1041F000A04500F2B6801846A4EB080440EA0C4043
:104200009FE7C7F1200CBB4022FA0CFE4EEA030EDA
:1042100001FA07F420FA0CF521FA0CF34FEA1E48D4
:104220002543B3FBF8F92C0C08FB19331FFA8EFA5F
:1042300044EA034309FB0AF49C4202FA07F200FA3B
:1042400007F10BD91EEB030309F1FF3080F08780E3
:104250009C4240F28480A9F1020973441B1BADB259
:10426000B3FBF8F008FB103345EA034400FB0AFAFD
:10427000A24508D91EEB040400F1FF336BD2A2451E
:1042800069D90238744440EA0940A0FB0289A4EBD2
:104290000A044C45C2464B4654D351D0002E69D037
:1042A000B1EB0A0564EB030404FA0CFCFD40FC408E
:1042B0004CEA0505C6E90054002747E7C2F1200390
:1042C00020FA03F7954001FA02F021FA03F34FEACE
:1042D000154E3843010CB3FBFEF71FFA85F80EFBB1
:1042E000173341EA034107FB08F38B4204FA02F457
:1042F00007D9691807F1FF3C2FD28B422DD9023F15
:104300002944CB1A81B2B3FBFEF00EFB103341EA15
:10431000034100FB08F38B4207D9691800F1FF3C09
:1043200017D28B4215D902382944C91A40EA0747E7
:104330003BE73746304609E70746E7E61846FBE61F
:104340004145ABD2B8EB020A69EB0E0201381346C5
:10435000A4E76046E9E7184695E76746D1E7814656
:104360007CE702382C4447E7ACF1020C2B442FE7E2
:10437000384608E73746E9E6704700BF746573744E
:10438000696E672E2E2E200A000000005469636BB0
:1043900073203A20256C750A0000000008000020F8
:1043A000494E4600696E66004E414E006E616E00D9
:1043B000303132333435363738396162636465669B
:1043C0000030313233343536373839414243444591
:1043D00046003000202020202020202020202020E7
:1043E000202020203030303030303030303030300D
:1043F00030303030496E66696E697479004E614EB6
:1044000000000000000000000080E03779C3414355
:10441000176E05B5B5B89346F5F93FE9034F384D2A
:10442000321D30F94877825A3CBF737FDD4F1575D6
:10443000000000000000F03F0000000000002440E9
:1044400000000000000059400000000000408F40C4
:10445000000000000088C34000000000006AF8402F
:104460000000000080842E4100000000D012634153
:104470000000000084D797410000000065CDCD41C9
:10448000000000205FA00242000000E876483742AA
:10449000000000A2941A6D42000040E59C30A24248
:1044A0000000901EC4BCD64200003426F56B0C43BD
:1044B0000080E03779C3414300A0D8855734764364
:1044C00000C84E676DC1AB43003D9160E458E143C5
:1044D000408CB5781DAF154450EFE2D6E41A4B443A
:1044E00092D54D06CFF08044F64AE1C7022DB5447F
:1044F000B49DD9794378EA44050000001900000012
:104500007D0000004300504F534958002E0000200A
:104510002020202020202020282828282820202073
:104520002020202020202020202020202020208823
:104530001010101010101010101010101010100487
:1045400004040404040404040410101010101010D7
:1045500041414141414101010101010101010101CB
:1045600001010101010101010101101010101010E1
:10457000424242424242020202020202020202029B
:1045800002020202020202020202101010102000B7
:10459000000000000000000000000000000000001B
:1045A000000000000000000000000000000000000B
:1045B00000000000000000000000000000000000FB
:1045C00000000000000000000000000000000000EB
:1045D00000000000000000000000000000000000DB
:1045E00000000000000000000000000000000000CB
:1045F00000000000000000000000000000000000BB
:1046000000000000000000000000000000000000AA
:10461000B0010209070000000005040001000000CD
:1046200000E6DF0C80F9370300F36F065001020744
:10463000050000000005040101000000007A030AE3
:1046400080DE800200BD0105F000020503000000CD
:104650000005040200000000000E270780C3C90106
:10466000008793039000020302000000000504028B
:104670000000000000A24A0480A812010051250297
:10468000C000040401000000000404020000000057
:10469000006CDC0200366E0100366E01C0000804BA
:1046A00000000000000000020000000000366E0163
:0846B00000366E0100366E01B8
:0446B800F8B500BF92
:0446BC00F8B500BF8E
:0846C000611B0008050200085F
:0446C800E101000804
:0846CC00E0F9FF7F010000008E
:1046D400080000200000000000000000F402002098
:1046E4005C030020C4030020000000000000000060
:1046F40000000000000000000000000000000000B6
:1047040000000000000000000000000000000000A5
:104714000000000000000000000000000000000095
:104724000000000000000000000000000000000085
:104734000000000000000000000000000000000075
:104744000000000000000000000000000000000065
:104754000000000000000000000000000000000055
:104764000000000000000000000000000000000045
:104774000000000000000000000000000000000035
:1047840001000000000000000E33CDAB34126DE6D2
:10479400ECDE05000B00000000000000000000003B
:1047A4000000000000000000000000000000000005
:1047B40000000000000000000000000000000000F5
:1047C40000000000000000000000000000000000E5
:1047D40000000000000000000000000000000000D5
:104B0400420A0020000000000000000034040020DD
:104B1400340400203C0400203C0400204404002011
:104B2400440400204C0400204C04002054040020C1
:104B3400540400205C0400205C0400206404002071
:104B4400640400206C0400206C0400207404002021
:104B5400740400207C0400207C04002084040020D1
:104B6400840400208C0400208C0400209404002081
:104B7400940400209C0400209C040020A404002031
:104B8400A4040020AC040020AC040020B4040020E1
:104B9400B4040020BC040020BC040020C404002091
:104BA400C4040020CC040020CC040020D404002041
:104BB400D4040020DC040020DC040020E4040020F1
:104BC400E4040020EC040020EC040020F4040020A1
:104BD400F4040020FC040020FC0400200405002050
:104BE400040500200C0500200C05002014050020FD
:104BF400140500201C0500201C05002024050020AD
:104C0400240500202C0500202C050020340500205C
:104C1400340500203C0500203C050020440500200C
:104C2400440500204C0500204C05002054050020BC
:104C3400540500205C0500205C050020640500206C
:104C4400640500206C0500206C050020740500201C
:104C5400740500207C0500207C05002084050020CC
:104C6400840500208C0500208C050020940500207C
:104C7400940500209C0500209C050020A40500202C
:104C8400A4050020AC050020AC050020B4050020DC
:104C9400B4050020BC050020BC050020C40500208C
:104CA400C4050020CC050020CC050020D40500203C
:104CB400D4050020DC050020DC050020E4050020EC
:104CC400E4050020EC050020EC050020F40500209C
:104CD400F4050020FC050020FC050020040600204B
:104CE400040600200C0600200C06002014060020F8
:104CF400140600201C0600201C06002024060020A8
:104D0400240600202C0600202C0600203406002057
:104D1400340600203C0600203C0600204406002007
:104D2400440600204C0600204C06002054060020B7
:104D3400540600205C0600205C0600206406002067
:104D4400640600206C0600206C0600207406002017
:104D5400740600207C0600207C06002084060020C7
:104D6400840600208C0600208C0600209406002077
:104D7400940600209C0600209C060020A406002027
:104D8400A4060020AC060020AC060020B4060020D7
:104D9400B4060020BC060020BC060020C406002087
:104DA400C4060020CC060020CC060020D406002037
:104DB400D4060020DC060020DC060020E4060020E7
:104DC400E4060020EC060020EC060020F406002097
:104DD400F4060020FC060020FC0600200407002046
:104DE400040700200C0700200C07002014070020F3
:104DF400140700201C0700201C07002024070020A3
:104E0400240700202C0700202C0700203407002052
:104E1400340700203C0700203C0700204407002002
:104E2400440700204C0700204C07002054070020B2
:104E3400540700205C0700205C0700206407002062
:104E4400640700206C0700206C0700207407002012
:104E5400740700207C0700207C07002084070020C2
:104E6400840700208C0700208C0700209407002072
:104E7400940700209C0700209C070020A407002022
:104E8400A4070020AC070020AC070020B4070020D2
:104E9400B4070020BC070020BC070020C407002082
:104EA400C4070020CC070020CC070020D407002032
:104EB400D4070020DC070020DC070020E4070020E2
:104EC400E4070020EC070020EC070020F407002092
:104ED400F4070020FC070020FC0700200408002041
:104EE400040800200C0800200C08002014080020EE
:104EF400140800201C0800201C080020240800209E
:104F0400240800202C0800202C080020FFFFFFFFAD
:104F14000000020043000000000000000000000048
:104F2400000000000000000000000000000000007D
:104F3400000000004300000000000000000000002A
:104F4400000000000000000000000000000000005D
:104F5400000000004300000000000000000000000A
:104F6400000000000000000000000000000000003D
:104F740000000000430000000000000000000000EA
:104F8400000000000000000000000000000000001D
:104F940000000000430000000000000000000000CA
:104FA40000000000000000000000000000000000FD
:104FB40000000000430000000000000000000000AA
:104FC40000000000000000000000000000000000DD
:104FD400000000004300000000000000000000008A
:104FE40000000000000000000000000000000000BD
:104FF40000000000493A0008D5360008000000000F
:105004000E4500080C4500080D4500080D45000834
:105014000D4500080D4500080D4500080D45000824
:105024000D4500080D4500080D450008FFFFFFFF72
:10503400FFFFFFFFFFFFFFFFFFFF000001004153E1
:105044004349490000000000000000000000000087
:1050540000000000000000000000000000004153B8
:105064004349490000000000000000000000000067
:10507400000000000000000000000000000000002C
:0C5084000024F4000024F4000024F400D8
:0400000508003F357B
:00000001FF
